:020000040800F2
:1000000060060020A1010008A9010008AB0100085A
:10001000AD010008AF010008B101000800000000B8
:10002000000000000000000000000000B301000814
:10003000B501000800000000B7010008B901000880
:10004000BB010008BB010008BB010008BB010008A0
:10005000BB010008BB010008BB010008BB01000890
:10006000BB010008BB010008BB010008BB01000880
:10007000BB010008BB010008BB010008BB01000870
:10008000BB010008BB010008BB0100080000000024
:10009000000000000000000000000000BB0100089C
:1000A000BB010008BB010008BB010008BB01000840
:1000B000BB010008BB010008BB010008BB01000830
:1000C000BB010008BB010008BB010008BB01000820
:1000D000BB010008BB010008BB010008BB01000810
:1000E000BB010008BB010008BB01000800000000C4
:1000F0000000000000000000000000000000000000
:1001000000000000000000000000000000000000EF
:100110000000000000000000BB010008BB01000857
:1001200000F002F800F02CF80AA090E8000C8244DD
:100130008344AAF10107DA4501D100F021F8AFF2BA
:10014000090EBAE80F0013F0010F18BFFB1A43F0B5
:1001500001031847700600008006000000230024F9
:1001600000250026103A28BF78C1FBD8520728BFC7
:1001700030C148BF0B6070471FB51FBD10B510BD23
:1001800000F031F81146FFF7F7FF00F027F900F013
:100190004FF803B4FFF7F2FF03BC00F057F800007C
:1001A0000948804709480047FEE7FEE7FEE7FEE70B
:1001B000FEE7FEE7FEE7FEE7FEE7FEE70448054947
:1001C000054A064B704700001D0300082101000886
:1001D0006000002060060020600200206002002015
:1001E000704770477047754600F02CF8AE46050022
:1001F0006946534620F00700854618B020B5FFF742
:10020000DDFFBDE820404FF000064FF000074FF043
:1002100000084FF0000B21F00701AC46ACE8C00924
:10022000ACE8C009ACE8C009ACE8C0098D4670472D
:1002300010B50446AFF300802046BDE81040FFF73C
:10024000A8BF0000004870470000002001491820A6
:10025000ABBEFEE726000200704710B500F002F8C2
:1002600010BD00000CB50020019000902A480068E5
:1002700040F480302849086000BF2748006800F437
:10028000003000900198401C0190009818B9019826
:10029000B0F5A06FF1D12048006800F4003010B133
:1002A0000120009001E0002000900098012831D149
:1002B0001948406818494860084640684860084640
:1002C000406848600846406820F47C104860084652
:1002D000406840F4981048600846006840F080701C
:1002E000086000BF0C48006800F000700028F9D0DA
:1002F0000948406820F00300074948600846406804
:1003000040F00200486000BF0348406800F00C0065
:100310000828F9D10CBD00000010024010B51448A7
:10032000006840F001001249086008464068114921
:1003300008400F494860084600680F4908400C49CA
:1003400008600846006820F480200860084640687D
:1003500020F4FE0048604FF41F0088600020C8624F
:10036000FFF77BFF4FF000600449086010BD0000FC
:10037000001002400000FFF8FFFFF6FE08ED00E06D
:10038000064A32F81120064BDA60064A1268064B1C
:1003900033F810301A43034B1A607047AC0700085B
:1003A000001001400C0801409007000830B50546D8
:1003B000002406E0E1B2285DFFF7E2FF00F0C6F995
:1003C000641C042CF6DB30BD024931F81010024ADF
:1003D00011607047A40700080C08014085B08848E8
:1003E000806940F01C00864988610846C06940F079
:1003F0000700C8618348006820F0406081490860B8
:100400000846006840F0807008600846006820F0E8
:10041000404008600846006840F080500860084688
:10042000406820F00C0048600846406840F0010039
:1004300048600846406820F0C000486008464068B0
:1004400040F0100048607048006820F00C006E49D1
:1004500008600846006840F001000860084600682F
:1004600020F0C00008600846006840F010000860F6
:100470000846006820F4406008600846006840F4C0
:10048000807008600846006820F440400860084614
:10049000006840F4805008600846006820F440205E
:1004A00008600846006840F480300860084600682C
:1004B00020F4400008600846006840F4801008609E
:1004C0000846006820F0406008600846006840F078
:1004D000807008600846006820F0404008600846C8
:1004E000006840F080500860081D006820F00C0093
:1004F000091D08600846006840F0010008600846D1
:10050000006820F0C00008600846006840F0100055
:1005100008600846006820F44060086008460068EB
:1005200040F4807008600846006820F4404008608D
:100530000846006840F4805008600846006820F4CF
:10054000402008600846006840F4803008602F486A
:10055000006820F00C002D4908600846006840F053
:10056000010008600846006820F0C00008600846E6
:10057000006840F0100008600846006820F4406001
:1005800008600846006840F480700860081D006834
:1005900020F44060091D08600846006840F480703F
:1005A000086045F6BF501A4908804FF4FA70091DDB
:1005B0000880012016492839088045F6BF501549A2
:1005C00008800520091D088001201249283908806B
:1005D00045F6BF50C90408854FF47A70888501201C
:1005E0000880002004900C4B0FCB8DE80F0004A96D
:1005F000684600F07BF802E004A8FFF7D7FEFBE7AF
:10060000001002400010014000080140000C0140B1
:100610002804004028080040B407000810B503462D
:10062000002255E0002013E0904208D12A490968D1
:100630002A4C54F820402143274C216007E02649EA
:100640000968274C34F810402143234C2160401C9A
:100650000428E9DB002138E01F4808380068214CF5
:1006600034F81140204070BB1F48008820F0010082
:100670001D4C20800FE0184808380068194C34F8E9
:100680001140204038B11848008820F00100164C75
:1006900020800A2010BD1448008800F001000028C6
:1006A000E9D00D48083800680E4C34F8114020405D
:1006B00048B90D48008820F001000B4C208003EB66
:1006C0008200405CE6E7FFE7491C0429C4DB521CBA
:1006D000042AA7DB0A20DDE7100C01407807000898
:1006E0007007000888070008100400402DE9F04159
:1006F00007460E460025A84623E03846FFF78EFF42
:1007000004460A2C06DAB8F1000F03D174554FF0F5
:10071000010810E00C2C08D14FF00008032D01D384
:10072000002000E0681C054605E00D2C03D14FF0C9
:100730000008002070553046FFF738FEE8B2FFF79A
:1007400043FE0B2CD9D1BDE8F08100000648C068FB
:1007500020F470700449C8600448006841F60C71C8
:100760008843024908607047001001400C080140AE
:10077000010002000400000400000100000002006B
:1007800000000400000000040008001000200040E9
:100790000C170404041B041E0C0C081E081F041470
:1007A0000C1F0C1EF2006000B100710000018000FF
:1007B000400000020102030B0405060C0708090DA6
:1007C00001000F0ED40700080000002060060000A2
:0407D0005C010008C0
:04000005080001A14D
:00000001FF
